:020000040800F2
:100000000050002011070008350600083B060008D4
:1000100041060008470600084D06000800000000E1
:10002000000000000000000000000000530600086F
:100030005F060008000000006B0600087706000855
:1000400059070008590700085907000885060008E5
:100050005907000859070008590700085907000800
:1000600059070008590700085907000859070008F0
:1000700059070008590700085907000859070008E0
:1000800059070008590700085907000859070008D0
:1000900059070008590700085907000859070008C0
:1000A00059070008590700085907000859070008B0
:1000B00059070008590700085907000859070008A0
:1000C0005907000859070008590700085907000890
:1000D0005907000859070008590700085907000880
:1000E00059070008590700085907000800000000D8
:1000F0000000000000000000000000000000000000
:0C01000000000000000000005FF808F1A3
:10010C0010B5054C237833B9044B13B10448AFF345
:10011C0000800123237010BD70000020000000003F
:10012C00902D000808B5034B1BB103490348AFF3EE
:10013C00008008BD0000000074000020902D000815
:10014C0080B582B000AF03463960FB713B68DBB20F
:10015C001A460221204800F013FEFB79DB08DBB2C3
:10016C0003F00103DBB21A4680211B4800F008FEA5
:10017C00FB799B08DBB203F00103DBB21A4640218A
:10018C00154800F0FDFDFB795B08DBB203F00103C1
:10019C00DBB21A462021104800F0F2FDFB7903F087
:1001AC000103DBB21A4610210B4800F0E9FD0122D5
:1001BC000821094800F0E4FD0A2000F02BFB002286
:1001CC000821054800F0DCFD0A2000F023FB00BFED
:1001DC000837BD4680BD00BF0008014080B584B023
:1001EC0000AF0346FB71FB791B09FB73FB7B002102
:1001FC001846FFF7A5FFFB7903F00F03FB73FB7B9E
:10020C0000211846FFF79CFF00BF1037BD4680BD8C
:10021C0080B584B000AF0346FB71FB791B09FB73FF
:10022C00FB7B01211846FFF78BFFFB7903F00F03D3
:10023C00FB73FB7B01211846FFF782FF00BF1037D1
:10024C00BD4680BD80B582B000AF786039607B68F8
:10025C00002B03D07B68012B05D009E03B6843F0F1
:10026C0080033B6004E03B6843F0C0033B6000BF8D
:10027C003B68DBB21846FFF7B1FF00BF0837BD463D
:10028C0080BD80B500AF0A2000F0C4FA0220FFF751
:10029C00A5FF2820FFF7A2FF0820FFF79FFF0120F2
:1002AC00FFF79CFF0620FFF799FF0C20FFF796FF46
:1002BC0000BF80BD80B582B000AF786006E07B687F
:1002CC005A1C7A601B781846FFF7A2FF7B681B78D4
:1002DC00002BF4D100BF00BF0837BD4680BD000025
:1002EC0080B584B002AF3B4600221946124801F09B
:1002FC00F5FB3B1D002219460F4801F07DFD3B78B4
:10030C001A467B781946BB7800930B460B490C4870
:10031C0002F0FEF8BB791A467B791946FB7903F596
:10032C00FA6300930B460549064802F0F1F800BF4A
:10033C000837BD4680BD00BF98000020A82D0008DE
:10034C00AC000020C000002080B500AF04210020CC
:10035C00FFF778FF0548FFF7ADFF03210120FFF7FA
:10036C0071FF0348FFF7A6FF00BF80BDAC00002063
:10037C00C000002080B500AF00F0EAF900F00FF8E3
:10038C0000F0B0F800F05EF8FFF77BFFFFF7A8FF76
:10039C00FFF7DAFF4FF4FA7000F03CFAF6E780B59D
:1003AC0094B000AF07F1280328220021184602F070
:1003BC00A7F807F1140300221A605A609A60DA60F9
:1003CC001A613B1D00221A605A609A60DA600A2397
:1003DC00BB620123BB631023FB6301233B6400233B
:1003EC007B6407F12803184600F0EEFC0346002B53
:1003FC0001D000F0B5F80F237B610023BB61002313
:10040C00FB6100233B6200237B6207F11403002194
:10041C00184600F059FF0346002B01D000F0A0F85D
:10042C0001237B604FF40073BB603B1D184601F049
:10043C00C5F80346002B01D000F092F800BF5037EE
:10044C00BD4680BD80B582B000AF3B1D00210A4681
:10045C001A800A469A7000233B60204B204A1A608F
:10046C001E4B4FF0FF325A601C4B4FF480729A6057
:10047C001A4801F00FFA0346002B01D000F070F877
:10048C0003233B7144237B713023BB713B1D012241
:10049C001946124801F08AFA0346002B01D000F0ED
:1004AC005FF802233B7009237B701723BB70242356
:1004BC00FB703B4601221946084801F0E7FB034656
:1004CC00002B01D000F04CF842F2453201210348D8
:1004DC0001F0D2FF00BF0837BD4680BD9800002058
:1004EC000028004080B586B000AF07F10803002259
:1004FC001A605A609A60DA60174B9B69164A43F08F
:10050C0020039361144B9B6903F020037B607B6891
:10051C00114B9B69104A43F0040393610E4B9B698A
:10052C0003F004033B603B680022FE210B4800F003
:10053C0027FCFE23BB600123FB6000233B610223ED
:10054C007B6107F108031946044800F095FA00BFD7
:10055C001837BD4680BD00BF0010024000080140A6
:10056C0080B400AF72B600BFFEE7000080B485B067
:10057C0000AF154B9B69144A43F001039361124B76
:10058C009B6903F00103BB60BB680F4BDB690E4A30
:10059C0043F08053D3610C4BDB6903F080537B60D9
:1005AC007B680A4B5B68FB60FB6823F0E063FB60D5
:1005BC00FB6843F08063FB60044AFB68536000BF38
:1005CC001437BD4680BC704700100240000001404B
:1005DC0080B584B000AF78607B681B680F4A93428B
:1005EC0018D100F0E5FB0E4BDB690D4A43F00063BC
:1005FC00D3610B4BDB6903F00063FB60FB68094BB9
:10060C0001221A6000220021032000F0FEF90320D1
:10061C0000F017FA00BF1037BD4680BD002800401F
:10062C00001002403C04424280B400AFFEE780B4AC
:10063C0000AFFEE780B400AFFEE780B400AFFEE78A
:10064C0080B400AFFEE780B400AF00BFBD4680BCF5
:10065C00704780B400AF00BFBD4680BC704780B40B
:10066C0000AF00BFBD4680BC704780B500AF00F046
:10067C00B5F800BF80BD000080B500AF024801F0A6
:10068C00B1FE00BF80BD00BF9800002080B586B0D1
:10069C0000AF7860144A154BD31A7B617B693B61C0
:1006AC00134B1B68002B02D1114B124A1A60104BD2
:1006BC001A687B6813443A699A4207D201F0F6FE35
:1006CC0003460C221A604FF0FF3309E0084B1B68FD
:1006DC00FB60074B1A687B681344054A1360FB6880
:1006EC0018461837BD4680BD00500020000400009D
:1006FC008C000020E800002080B400AF00BFBD4695
:10070C0080BC7047FFF7F8FF0B480C490C4A0023DC
:10071C0002E0D458C4500433C4188C42F9D3094AAB
:10072C00094C002301E013600432A242FBD301F018
:10073C00C3FEFFF71FFE7047000000207000002072
:10074C00342E000870000020E8000020FEE70000B6
:10075C0080B500AF084B1B68074A43F010031360C9
:10076C00032000F047F90F2000F008F8FFF7FEFE19
:10077C000023184680BD00BF0020024080B582B027
:10078C0000AF7860124B1A68124B1B7819464FF465
:10079C007A73B3FBF1F3B2FBF3F3184600F05FF995
:1007AC000346002B01D001230EE07B680F2B0AD8E7
:1007BC00002279684FF0FF3000F027F9064A7B6879
:1007CC001360002300E0012318460837BD4680BDA6
:1007DC0000000020080000200400002080B400AFBE
:1007EC00054B1B781A46054B1B681344034A1360D0
:1007FC0000BFBD4680BC704708000020D40000201C
:10080C0080B400AF024B1B681846BD4680BC7047D5
:10081C00D400002080B584B000AF7860FFF7F0FF03
:10082C00B8607B68FB60FB68B3F1FF3F05D00A4BF7
:10083C001B781A46FB681344FB6000BFFFF7E0FF10
:10084C000246BB68D31AFA689A42F7D800BF00BFB9
:10085C001037BD4680BD00BF0800002080B485B0B5
:10086C0000AF78607B6803F00703FB600C4BDB6820
:10087C00BB60BA684FF6FF031340BB60FB681A02FB
:10088C00BB68134343F0BF6343F40033BB60044ABB
:10089C00BB68D36000BF1437BD4680BC704700BF37
:1008AC0000ED00E080B400AF044BDB681B0A03F0E2
:1008BC0007031846BD4680BC704700BF00ED00E042
:1008CC0080B483B000AF0346FB7197F90730002B5F
:1008DC000BDBFB7903F01F02064997F907305B0924
:1008EC00012000FA02F241F8232000BF0C37BD466C
:1008FC0080BC704700E100E080B483B000AF0346D9
:10090C003960FB7197F90730002B0ADB3B68DAB2D0
:10091C000C4997F907301201D2B20B4483F800232B
:10092C000AE03B68DAB20849FB7903F00F03043B99
:10093C001201D2B20B441A7600BF0C37BD4680BCF4
:10094C00704700BF00E100E000ED00E080B489B02A
:10095C0000AFF860B9607A60FB6803F00703FB61D5
:10096C00FB69C3F10703042B28BF0423BB61FB699C
:10097C000433062B02D9FB69033B00E000237B61A7
:10098C004FF0FF32BB6902FA03F3DA43BB681A403B
:10099C007B699A404FF0FF317B6901FA03F3D9432D
:1009AC007B680B40134318462437BD4680BC704708
:1009BC0080B582B000AF78607B68013BB3F1807F7B
:1009CC0001D301230FE00A4A7B68013B53600F21DE
:1009DC004FF0FF30FFF790FF054B00229A60044B5D
:1009EC0007221A60002318460837BD4680BD00BF99
:1009FC0010E000E080B582B000AF78607868FFF757
:100A0C002DFF00BF0837BD4680BD80B586B000AF56
:100A1C000346B9607A60FB7300237B61FFF742FFEA
:100A2C0078617A68B9687869FFF790FF024697F9A0
:100A3C000F3011461846FFF75FFF00BF1837BD4651
:100A4C0080BD80B582B000AF0346FB7197F90730CB
:100A5C001846FFF735FF00BF0837BD4680BD80B58F
:100A6C0082B000AF78607868FFF7A2FF03461846A3
:100A7C000837BD4680BD000080B48BB000AF7860F5
:100A8C00396000237B6200233B6269E101227B6AAF
:100A9C0002FA03F3FB613B681B68FA691340BB6104
:100AAC00BA69FB699A4240F058813B685B689A4A84
:100ABC0093425ED0984A934275D8984A934258D044
:100ACC00964A93426FD8964A934252D0944A934294
:100ADC0069D8944A93424CD0924A934263D8924A32
:100AEC00934246D0904A93425DD8122B2AD8122BAF
:100AFC0059D801A252F823F07F0B0008590B0008BB
:100B0C006B0B0008AD0B0008B30B0008B30B00080F
:100B1C00B30B0008B30B0008B30B0008B30B0008B1
:100B2C00B30B0008B30B0008B30B0008B30B0008A1
:100B3C00B30B0008B30B0008B30B0008610B0008E3
:100B4C00750B0008794A934213D02CE03B68DB68A4
:100B5C003B6229E03B68DB6804333B6224E03B6882
:100B6C00DB6808333B621FE03B68DB680C333B629D
:100B7C001AE03B689B68002B02D104233B6213E014
:100B8C003B689B68012B05D108233B627B68FA69A3
:100B9C001A6109E008233B627B68FA695A6103E039
:100BAC0000233B6200E000BFBB69FF2B01D87B68D0
:100BBC0001E07B6804337B61BB69FF2B02D87B6A45
:100BCC009B0002E07B6A083B9B003B617B691A68D7
:100BDC000F213B6901FA03F3DB431A40396A3B6985
:100BEC0001FA03F31A437B691A603B685B6803F0F4
:100BFC008053002B00F0B1804D4B9B694C4A43F065
:100C0C00010393614A4B9B6903F00103BB60BB6812
:100C1C00484A7B6A9B08023352F82330FB607B6A9C
:100C2C0003F003039B000F2202FA03F3DB43FA6881
:100C3C001340FB607B68404A934213D07B683F4A69
:100C4C0093420DD07B683E4A934207D07B683D4A65
:100C5C00934201D1032306E0042304E0022302E0C3
:100C6C00012300E000237A6A02F003029200934011
:100C7C00FA681343FB602F497B6A9B080233FA68BE
:100C8C0041F823203B685B6803F48013002B06D0EB
:100C9C002D4B9A682C49BB6913438B6006E02A4B99
:100CAC009A68BB69DB43284913408B603B685B68DF
:100CBC0003F40013002B06D0234BDA682249BB69DE
:100CCC001343CB6006E0204BDA68BB69DB431E495B
:100CDC001340CB603B685B6803F40033002B06D0F9
:100CEC00194B5A681849BB6913434B6006E0164B05
:100CFC005A68BB69DB43144913404B603B685B6823
:100D0C0003F48033002B21D00F4B1A680E49BB69BA
:100D1C0013430B6021E000BF0000321000003110C3
:100D2C000000221000002110000012100000111011
:100D3C00001002400000014000080140000C01407E
:100D4C000010014000140140000401400B4B1A68D4
:100D5C00BB69DB43094913400B607B6A01337B623F
:100D6C003B681A687B6A22FA03F3002B7FF48EAE81
:100D7C0000BF00BF2C37BD4680BC7047000401404B
:100D8C0080B483B000AF78600B467B8013467B70D9
:100D9C007B78002B03D07A887B681A6103E07B8810
:100DAC001A047B681A6100BF0C37BD4680BC7047C3
:100DBC0080B400AF034B01221A6000BFBD4680BC5B
:100DCC00704700BF20000E4280B586B000AF78603F
:100DDC007B68002B01D101236CE27B681B6803F05C
:100DEC000103002B00F08780924B5B6803F00C032F
:100DFC00042B0CD08F4B5B6803F00C03082B12D127
:100E0C008C4B5B6803F48033B3F5803F0BD1894B7B
:100E1C001B6803F40033002B6CD07B685B68002BE1
:100E2C0068D1012346E27B685B68B3F5803F06D14D
:100E3C00804B1B687F4A43F4803313602EE07B6841
:100E4C005B68002B0CD17B4B1B687A4A23F48033F4
:100E5C001360784B1B68774A23F4802313601DE0E2
:100E6C007B685B68B3F5A02F0CD1724B1B68714A81
:100E7C0043F4802313606F4B1B686E4A43F480333A
:100E8C0013600BE06B4B1B686A4A23F480331360CE
:100E9C00684B1B68674A23F4802313607B685B688C
:100EAC00002B13D0FFF7ACFC386108E0FFF7A8FC6F
:100EBC0002463B69D31A642B01D90323FAE15D4B3B
:100ECC001B6803F40033002BF0D014E0FFF798FC00
:100EDC00386108E0FFF794FC02463B69D31A642B97
:100EEC0001D90323E6E1534B1B6803F40033002BB9
:100EFC00F0D100E000BF7B681B6803F00203002BFD
:100F0C0063D04C4B5B6803F00C03002B0BD0494BAC
:100F1C005B6803F00C03082B1CD1464B5B6803F495
:100F2C008033002B16D1434B1B6803F00203002BBC
:100F3C0005D07B681B69012B01D00123BAE13D4B25
:100F4C001B6823F0F8027B685B69DB0039491343AB
:100F5C000B603AE07B681B69002B20D0364B0122DA
:100F6C001A60FFF74DFC386108E0FFF749FC0246B8
:100F7C003B69D31A022B01D903239BE12D4B1B6830
:100F8C0003F00203002BF0D02A4B1B6823F0F8026D
:100F9C007B685B69DB00274913430B6015E0264B2C
:100FAC0000221A60FFF72CFC386108E0FFF728FCE0
:100FBC0002463B69D31A022B01D903237AE11D4B5C
:100FCC001B6803F00203002BF0D17B681B6803F055
:100FDC000803002B3AD07B689B69002B19D0174B68
:100FEC0001221A60FFF70CFC386108E0FFF708FCDF
:100FFC0002463B69D31A022B01D903235AE10D4B4C
:10100C005B6A03F00203002BF0D0012000F0B8FA69
:10101C001CE00A4B00221A60FFF7F2FB38610FE06C
:10102C00FFF7EEFB02463B69D31A022B08D90323C8
:10103C0040E100BF001002400000424280044242E6
:10104C009E4B5B6A03F00203002BE9D17B681B68A3
:10105C0003F00403002B00F0A6800023FB75974BD4
:10106C00DB6903F08053002B0DD1944BDB69934A61
:10107C0043F08053D361914BDB6903F08053BB6029
:10108C00BB680123FB758E4B1B6803F48073002B2C
:10109C0018D18B4B1B688A4A43F480731360FFF79B
:1010AC00AFFB386108E0FFF7ABFB02463B69D31A94
:1010BC00642B01D90323FDE0814B1B6803F480737F
:1010CC00002BF0D07B68DB68012B06D17B4B1B6AB5
:1010DC007A4A43F0010313622DE07B68DB68002B36
:1010EC000CD1764B1B6A754A23F001031362734BC8
:1010FC001B6A724A23F0040313621CE07B68DB68F2
:10110C00052B0CD16D4B1B6A6C4A43F00403136224
:10111C006A4B1B6A694A43F0010313620BE0674B8D
:10112C001B6A664A23F001031362644B1B6A634A11
:10113C0023F0040313627B68DB68002B15D0FFF7E8
:10114C005FFB38610AE0FFF75BFB02463B69D31A91
:10115C0041F28832934201D90323ABE0574B1B6A0F
:10116C0003F00203002BEED014E0FFF749FB3861CB
:10117C000AE0FFF745FB02463B69D31A41F288327D
:10118C00934201D9032395E04C4B1B6A03F00203F5
:10119C00002BEED1FB7D012B05D1484BDB69474A77
:1011AC0023F08053D3617B68DB69002B00F08180D6
:1011BC00424B5B6803F00C03082B61D07B68DB6946
:1011CC00022B46D13F4B00221A60FFF719FB386106
:1011DC0008E0FFF715FB02463B69D31A022B01D935
:1011EC00032367E0354B1B6803F00073002BF0D131
:1011FC007B681B6AB3F5803F08D1304B5B6823F4E6
:10120C0000327B689B682D4913434B602B4B5B680A
:10121C0023F474127B68196A7B685B6A0B43274959
:10122C0013434B60274B01221A60FFF7E9FA386130
:10123C0008E0FFF7E5FA02463B69D31A022B01D905
:10124C00032337E01D4B1B6803F00073002BF0D019
:10125C002FE01C4B00221A60FFF7D2FA386108E02D
:10126C00FFF7CEFA02463B69D31A022B01D90323AE
:10127C0020E0124B1B6803F00073002BF0D118E038
:10128C007B68DB69012B01D1012313E00B4B5B68FD
:10129C00FB60FB6803F480327B681B6A9A4206D1C0
:1012AC00FB6803F470127B685B6A9A4201D00123DD
:1012BC0000E0002318461837BD4680BD00100240E0
:1012CC00007000406000424280B584B000AF78608E
:1012DC0039607B68002B01D10123D0E06A4B1B687D
:1012EC0003F007033A689A4210D9674B1B6823F046
:1012FC00070265493B6813430B60634B1B6803F0A3
:10130C0007033A689A4201D00123B8E07B681B6856
:10131C0003F00203002B20D07B681B6803F004034E
:10132C00002B05D0594B5B68584A43F4E06353607B
:10133C007B681B6803F00803002B05D0534B5B68DC
:10134C00524A43F460535360504B5B6823F0F002F5
:10135C007B689B684D4913434B607B681B6803F0AB
:10136C000103002B40D07B685B68012B07D1474BF6
:10137C001B6803F40033002B15D101237FE07B683D
:10138C005B68022B07D1414B1B6803F00073002BE9
:10139C0009D1012373E03D4B1B6803F00203002BC2
:1013AC0001D101236BE0394B5B6823F003027B68AE
:1013BC005B68364913434B60FFF722FAF8600AE08A
:1013CC00FFF71EFA0246FB68D31A41F288329342A9
:1013DC0001D9032353E02D4B5B6803F00C027B68AF
:1013EC005B689B009A42EBD1274B1B6803F0070309
:1013FC003A689A4210D2244B1B6823F00702224908
:10140C003B6813430B60204B1B6803F007033A68DF
:10141C009A4201D0012332E07B681B6803F004037D
:10142C00002B08D0194B5B6823F4E0627B68DB6807
:10143C00164913434B607B681B6803F00803002BB1
:10144C0009D0124B5B6823F460527B681B69DB008C
:10145C000E4913434B6000F021F802460B4B5B68BE
:10146C001B0903F00F030A49CB5C22FA03F3094A68
:10147C001360094B1B681846FFF780F900231846C8
:10148C001037BD4680BD00BF002002400010024056
:10149C00B82D0008000000200400002080B487B0A4
:1014AC0000AF0023FB600023BB6000237B610023A3
:1014BC007B6000233B611E4B5B68FB60FB6803F0A9
:1014CC000C03042B02D0082B03D027E0194B3B61F3
:1014DC0027E0FB689B0C03F00F03174AD35C7B607F
:1014EC00FB6803F48033002B10D0114B5B685B0C52
:1014FC0003F00103114AD35CBB607B680D4A02FB0D
:10150C0003F2BB68B2FBF3F37B6104E07B680C4A2B
:10151C0002FB03F37B617B693B6102E0054B3B61A2
:10152C0000BF3B6918461C37BD4680BC704700BFE6
:10153C000010024000127A00D02D0008E02D0008A7
:10154C0000093D0080B400AF024B1B681846BD4635
:10155C0080BC70470000002080B500AFFFF7F2FFA1
:10156C000246054B5B68DB0A03F007030349CB5CBF
:10157C0022FA03F3184680BD00100240C82D000863
:10158C0080B485B000AF78600A4B1B680A4AA2FB96
:10159C0003235B0A7A6802FB03F3FB6000BFFB6862
:1015AC005A1EFA60002BF9D100BF00BF1437BD469C
:1015BC0080BC704700000020D34D621080B586B00F
:1015CC0000AF786000233B610023FB607B681B68E5
:1015DC0003F00103002B7DD00023FB754F4BDB691F
:1015EC0003F08053002B0DD14C4BDB694B4A43F07D
:1015FC008053D361494BDB6903F08053BB60BB68FC
:10160C000123FB75464B1B6803F48073002B18D128
:10161C00434B1B68424A43F480731360FFF7F0F8A6
:10162C00386108E0FFF7ECF802463B69D31A642BEB
:10163C0001D903236DE03A4B1B6803F48073002B34
:10164C00F0D0364B1B6A03F44073FB60FB68002B35
:10165C002ED07B685B6803F44073FA689A4227D0FB
:10166C002E4B1B6A23F44073FB602E4B01221A6035
:10167C002C4B00221A60294AFB681362FB6803F0AA
:10168C000103002B14D0FFF7BBF838610AE0FFF719
:10169C00B7F802463B69D31A41F28832934201D91A
:1016AC00032336E01D4B1B6A03F00203002BEED024
:1016BC001A4B1B6A23F440727B685B68174913430F
:1016CC000B62FB7D012B05D1144BDB69134A23F014
:1016DC008053D3617B681B6803F00203002B08D096
:1016EC000E4B5B6823F440427B689B680B491343A9
:1016FC004B607B681B6803F01003002B08D0074B72
:10170C005B6823F480027B68DB68044913434B60FD
:10171C00002318461837BD4680BD00BF001002409C
:10172C00007000404004424280B588B000AF786041
:10173C0000237B610023FB6100233B610023FB60E2
:10174C000023BB617B68102B0AD07B68102B00F246
:10175C008A807B68012B45D07B68022B75D082E098
:10176C00464B5B68FB60454B1B6803F08073002B9A
:10177C007BD0FB689B0C03F00F03414AD35C3B61AD
:10178C00FB6803F48033002B15D03C4B5B685B0C7F
:10179C0003F001033B4AD35C7B61FB6803F48033A9
:1017AC00002B0DD0384A7B69B2FBF3F23B6902FB8C
:1017BC0003F3FB6104E03B69344A02FB03F3FB6176
:1017CC002E4B5B6803F48003B3F5800F02D1FB69E9
:1017DC00BB614AE0FB695B002D4AA2FB03235B085B
:1017EC00BB6142E0254B1B6AFB60FB6803F4407352
:1017FC00B3F5807F08D1FB6803F00203002B03D004
:10180C004FF40043BB611FE0FB6803F44073B3F576
:10181C00007F09D1194B5B6A03F00203002B03D044
:10182C0049F64043BB610FE0FB6803F44073B3F52A
:10183C00407F1CD1114B1B6803F40033002B16D0D6
:10184C004FF22443BB6112E011E0FFF785FE024624
:10185C000A4B5B689B0B03F0030301335B00B2FB89
:10186C00F3F3BB6104E000BF02E000BF00E000BF87
:10187C00BB6918462037BD4680BD00BF0010024032
:10188C00E42D0008F42D000800127A0000093D0038
:10189C00ABAAAAAA80B584B000AF78600023FB6025
:1018AC007B68002B01D101237AE07B685B7CDBB287
:1018BC00002B05D17B6800221A747868FEF788FE2D
:1018CC007B6802225A74786800F0EAFA0346002B0F
:1018DC0004D07B6804225A74012361E0786800F01C
:1018EC00A3FB0346002B04D07B6804225A7401230B
:1018FC0056E07B681B685A687B681B6822F00702FD
:10190C005A607B689B68002B05D0274B1B6B264AC3
:10191C0023F001031363244BDB6A23F460727B68AE
:10192C009B6821491343CB627B685B68B3F1FF3F33
:10193C0003D07B685B68FB600EE00120FFF7F4FED0
:10194C00F860FB68002B04D17B6804225A740123D5
:10195C0026E0FB68013BFB60FB681A0C7B681B688C
:10196C0002F00F029A607B681B68FA6892B2DA6028
:10197C00786800F081FB0346002B04D07B680422BE
:10198C005A7401230CE07B680022DA737B68012215
:10199C005A737B6801229A737B6801225A74002364
:1019AC0018461037BD4680BD006C004090B587B01E
:1019BC0000AFF860B9607A6000237B6100233B6163
:1019CC00FB68002B02D0BB68002B01D1012380E007
:1019DC00FB681B7C012B01D102237AE0FB680122FE
:1019EC001A74FB6802225A747B68002B13D1BB68F3
:1019FC001B781A464FF4616303FB02F2BB685B78F9
:101A0C0019460B461B015B1A9B001344BA6892786B
:101A1C0013447B611EE0BB681B78184600F071FB19
:101A2C0003461A464FF4616303FB02F4BB685B7810
:101A3C00184600F066FB03461A4613461B019B1A18
:101A4C009B001C44BB689B78184600F05AFB03466D
:101A5C0023447B617969F86800F07FFA0346002B18
:101A6C0007D0FB6804225A74FB6800221A74012305
:101A7C002FE0FB681B685A68FB681B6822F00502A4
:101A8C005A60F86800F090FA38613B69B3F1FF3F97
:101A9C0018D03A697B699A4214D23B6903F5A83392
:101AAC0003F5C0733B613969F86800F096FA034698
:101ABC00002B07D0FB6804225A74FB6800221A74AE
:101ACC00012306E0FB6801225A74FB6800221A7499
:101ADC00002318461C37BD4690BD000080B588B069
:101AEC0000AFF860B9607A600023BB610023FB6132
:101AFC0000237B6100233B61FB68002B02D0BB6899
:101B0C00002B01D10123B5E0FB681B685B6803F077
:101B1C000403002B01D00123ACE0F86800F0EDF9D0
:101B2C00B861BB69554AA2FB0323DB0A3B61BA6966
:101B3C00524BA3FB0213DB0A4FF4616101FB03F36D
:101B4C00D31A4F4AA2FB03235B09DAB2BB685A7063
:101B5C00BB694A4AA2FB0312D20A4FF4616101FB32
:101B6C0002F29A1A464BA3FB021359090B461B01AE
:101B7C005B1A9B00D11ACAB2BB689A703B69172BCF
:101B8C0055D93B693F4AA2FB03231B097B61396989
:101B9C003C4BA3FB01231A0913465B001344DB00E7
:101BAC00CA1AD2B2BB681A70F86800F0FDF9F86175
:101BBC00FB69B3F1FF3F08D0FA69BB699A4204D9BB
:101BCC00FA69BB69D31AFB6102E04FF0FF33FB618A
:101BDC007B692D4A02FB03F3BA69D31ABB61B9695D
:101BEC00F86800F0BAF90346002B01D0012341E05C
:101BFC00FB69B3F1FF3F0CD0FA69BB691344FB617D
:101C0C00F969F86800F0E9F90346002B0AD00123C2
:101C1C0030E0F969F86800F0E0F90346002B01D0D8
:101C2C00012327E07969F86800F088FA03E03B6942
:101C3C00DAB2BB681A707B68002B1AD0BB681B78B1
:101C4C00184600F041FA03461A46BB681A70BB6886
:101C5C005B78184600F038FA03461A46BB685A708F
:101C6C00BB689B78184600F02FFA03461A46BB68EF
:101C7C009A70002318462037BD4680BDC5B3A2918B
:101C8C0089888888ABAAAAAA8051010080B588B03F
:101C9C0000AFF860B9607A600023FB610023BB6180
:101CAC0000237B61FB68002B02D0BB68002B01D1A9
:101CBC00012397E0FB681B7C012B01D1022391E0EF
:101CCC00FB6801221A74FB6802225A747B68002B91
:101CDC000CD1BB68DA78FB68DA73BB685A78FB689E
:101CEC005A73BB689A78FB689A731AE0BB68DB7806
:101CFC00184600F006FA03461A46FB68DA73BB680E
:101D0C005B78184600F0FDF903461A46FB685A73D7
:101D1C00BB689B78184600F0F4F903461A46FB683A
:101D2C009A73FB68DB7B1846FB68597BFB689B7BD3
:101D3C001A4600F0DFFA03461A46FB681A73FB6872
:101D4C001A7BBB681A70F86800F0D7F8F861FB6969
:101D5C00264AA2FB0323DB0A7B617B69182B3AD949
:101D6C007B69234AA2FB03231B09224A02FB03F3D0
:101D7C00FA69D31AFB61F969F86800F0EEF80346CA
:101D8C00002B07D0FB6804225A74FB6800221A74DB
:101D9C00012327E0F86800F007F9B861BB69B3F1DB
:101DAC00FF3F18D0BA69FB699A4214D2BB6903F59C
:101DBC00A83303F5C073BB61B969F86800F00DF97D
:101DCC000346002B07D0FB6804225A74FB680022E0
:101DDC001A74012306E0FB6801225A74FB68002286
:101DEC001A74002318462037BD4680BDC5B3A29196
:101DFC00ABAAAAAA8051010080B586B000AFF860EA
:101E0C00B9607A6007F1140300210A461A800A4669
:101E1C009A70FB68002B02D0BB68002B01D1012308
:101E2C003AE007F1140300221946F868FFF756FE52
:101E3C000346002B01D001232EE0FB681A7BBB6804
:101E4C001A70FB68DA7BBB68DA70FB685A7BBB687C
:101E5C005A70FB689A7BBB689A707B68002B1AD00F
:101E6C00BB68DB78184600F02FF903461A46BB68AE
:101E7C00DA70BB685B78184600F026F903461A4600
:101E8C00BB685A70BB689B78184600F01DF9034676
:101E9C001A46BB689A70002318461837BD4680BD99
:101EAC0080B584B000AF78600023FB607B68002BAA
:101EBC0001D101231DE07B681B685A687B681B6895
:101ECC0022F008025A60FEF79BFCF86009E0FEF76E
:101EDC0097FC0246FB68D31AB3F57A7F01D903232A
:101EEC0007E07B681B685B6803F00803002BEED0EF
:101EFC00002318461037BD4680BD80B487B000AFB4
:101F0C00786000237B8200233B820023FB8100232B
:101F1C007B617B681B689B697B827B681B68DB69C8
:101F2C00FB817B681B689B693B827A8A3B8A9A425D
:101F3C0008D03B8A1A047B681B68DB699BB213438D
:101F4C007B6104E07B8A1A04FB8913437B617B6908
:101F5C0018461C37BD4680BC704780B584B000AFB6
:101F6C00786039600023FB73786800F05DF80346F5
:101F7C00002B02D00123FB7311E07B681B683A68CD
:101F8C00120C9A617B681B683A6892B2DA617868C5
:101F9C0000F072F80346002B01D00123FB73FB7B8E
:101FAC0018461037BD4680BD80B485B000AF786050
:101FBC000023FB810023BB817B681B681B6AFB81B0
:101FCC007B681B685B6ABB81FB891A04BB89134362
:101FDC0018461437BD4680BC704780B584B000AF3E
:101FEC00786039600023FB73786800F01DF80346B5
:101FFC00002B02D00123FB7311E07B681B683A684D
:10200C00120C1A627B681B683A6892B25A62786842
:10201C0000F032F80346002B01D00123FB73FB7B4D
:10202C0018461037BD4680BD80B584B000AF7860CF
:10203C000023FB60FEF7E4FBF86009E0FEF7E0FB31
:10204C000246FB68D31AB3F57A7F01D903230FE05C
:10205C007B681B685B6803F02003002BEED07B6869
:10206C001B685A687B681B6842F010025A60002398
:10207C0018461037BD4680BD80B584B000AF78607F
:10208C000023FB607B681B685A687B681B6822F026
:10209C0010025A60FEF7B4FBF86009E0FEF7B0FBE3
:1020AC000246FB68D31AB3F57A7F01D9032307E004
:1020BC007B681B685B6803F02003002BEED00023C9
:1020CC0018461037BD4680BD80B485B000AF0346BE
:1020DC00FB710023FB6005E0FB680133FB60FB79BF
:1020EC000A3BFB71FB79092BF6D8FB68DBB21B01B1
:1020FC00DAB2FB791343DBB218461437BD4680BC09
:10210C00704780B485B000AF0346FB710023FB60C1
:10211C00FB791B09DBB21A4613469B0013445B0088
:10212C00FB60FB7903F00F03DAB2FB68DBB21344FC
:10213C00DBB218461437BD4680BC704780B586B0FC
:10214C0000AF7860396000237B6100233B61002382
:10215C00FB600023BB607B68DB7B7B617B685B7B0C
:10216C003B617B689B7BFB600023BB606FE03B6942
:10217C00012B11D03B69032B0ED03B69052B0BD0E7
:10218C003B69072B08D03B69082B05D03B690A2B10
:10219C0002D03B690C2B17D1FB681E2B03D8FB68B4
:1021AC000133FB6050E03B690C2B05D03B690133DC
:1021BC003B610123FB6047E001233B610123FB6092
:1021CC007B6901337B613FE03B69042B08D03B69A1
:1021DC00062B05D03B69092B02D03B690B2B0CD18C
:1021EC00FB681D2B03D8FB680133FB602CE03B69BB
:1021FC0001333B610123FB6026E03B69022B23D1B9
:10220C00FB681B2B03D8FB680133FB601CE0FB68ED
:10221C001C2B11D17B699BB2184600F039F8034690
:10222C00002B03D0FB680133FB600DE03B690133ED
:10223C003B610123FB6007E0FB681D2B04D13B696C
:10224C0001333B610123FB60BB680133BB60BA689F
:10225C003B689A428BD37B69DAB27B68DA733B6951
:10226C00DAB27B685A73FB68DAB27B689A733B69A3
:10227C00DBB2FA68D2B21946786900F03BF8034633
:10228C001A467B681A7300BF1837BD4680BD000024
:10229C0080B483B000AF0346FB80FB8803F00303DC
:1022AC009BB2002B01D000231DE0FB88104AA2FB3F
:1022BC0003125209642101FB02F29B1A9BB2002B00
:1022CC0001D001230FE0FB88094AA2FB0312D209BB
:1022DC004FF4C87101FB02F29B1A9BB2002B01D187
:1022EC00012300E0002318460C37BD4680BC704724
:1022FC001F85EB5180B485B000AF78600B46FB7046
:10230C001346BB700023BB600023FB607B6803F5A6
:10231C00FA63BB60FB78022B2DD8FA7813465B006E
:10232C001344DB009B1A2C4AA2FB03235A08BB78EC
:10233C001A44BB681A44BB68013B9B081A44BB682F
:10234C00013B2649A1FB03135B09D21ABB68013B75
:10235C002249A1FB0313DB0913441A1D204BA3FBD9
:10236C000213D11A49080B4499080B46DB005B1A7F
:10237C00D31AFB6029E0FA7813465B001344DB00A8
:10238C009B1A154AA2FB03235A08BB781A44BB6854
:10239C001A44BB689B081A44BB681049A1FB031381
:1023AC005B09D21ABB680D49A1FB0313DB0913446B
:1023BC009A1C0B4BA3FB0213D11A49080B44990826
:1023CC000B46DB005B1AD31AFB60FB68DBB21846CA
:1023DC001437BD4680BC7047398EE3381F85EB51EE
:1023EC002549922480B582B000AF78607B681B6869
:1023FC001B6803F00103002B27D07B681B685B680C
:10240C0003F00103002B20D07B681B685B6803F092
:10241C000403002B0BD0786800F024F87B681B6851
:10242C006FF004025A607B6804225A7405E07868E5
:10243C0000F00FF87B6801225A747B681B685A689D
:10244C007B681B6822F001025A6000BF0837BD464A
:10245C0080BD80B483B000AF786000BF0C37BD4640
:10246C0080BC704780B483B000AF786000BF0C377D
:10247C00BD4680BC7047000080B487B000AFF860E8
:10248C00B9607A6000237B61074B7B61BB689B0062
:10249C007A6913447B617B697A6892B21A6000BFD7
:1024AC001C37BD4680BC7047006C0040014B18685F
:1024BC00704700BF0C00002070B500260C4D0D4C71
:1024CC00641BA410A64209D100F05CFC00260A4D46
:1024DC000A4C641BA410A64205D170BD55F8043BF0
:1024EC0098470136EEE755F8043B98470136F2E77A
:1024FC002C2E00082C2E00082C2E0008302E000844
:10250C0003460244934200D1704703F8011BF9E7DC
:10251C000EB46FF0004100B59CB01DAB029006905C
:10252C00079104910848094953F8042B0591006858
:10253C0002A9019300F068F80022029B1A701CB0EB
:10254C005DF804EB03B070470C0000200802FFFF9D
:10255C002DE9F0478E6882469E420C4690461F46F7
:10256C0038D88A8912F4906F32D025680969013302
:10257C00A5EB010965694B4405EB450505EBD575E4
:10258C006D109D4238BF1D46530531D5294600F0CC
:10259C0053FB064650B90C234FF0FF30CAF80030FD
:1025AC00A38943F04003A381BDE8F0874A46216923
:1025BC0000F0CEFAA38923F4906343F08003A38147
:1025CC0026614E4426603E466561A5EB0905A56073
:1025DC00BE4200D93E4632464146206800F0C6FA5B
:1025EC00A36822689B1B32440020A3602260DBE7B7
:1025FC002A4600F07BFB06460028E1D150462169B3
:10260C0000F0CEFAC7E700002DE9F04F98468B8911
:10261C0007461B060D4614469DB00ED50B6963B9D3
:10262C00402100F009FB2860286120B90C233B6095
:10263C004FF0FF30D1E040236B610023099320233E
:10264C008DF8293030234FF00109CDF80C80DFF8DC
:10265C00A4818DF82A3023469A4613F8012B0AB12F
:10266C00252AF9D1BAEB040B0BD05B46224629463E
:10267C003846FFF76DFF013000F0AA80099A5A44E2
:10268C0009929AF80030002B00F0A28000234FF042
:10269C00FF32CDE905230AF1010A049307938DF863
:1026AC0053301A935446052214F8011B514800F07C
:1026BC0041FA049AD8B9D00644BF20238DF8533080
:1026CC00110744BF2B238DF853309AF800302A2B76
:1026DC0015D0544600204FF00A0C079A214611F8E9
:1026EC00013B303B092B4ED9B0B1079214E0A0EB63
:1026FC00080309FA03F31343A2460493D2E7039B9E
:10270C00191D1B680391002BBBBF5B4242F00202F8
:10271C0007930793B8BF049223782E2B0CD16378C0
:10272C002A2B35D1039B02341A1D1B680392002BF4
:10273C00B8BF4FF0FF330593DFF8C8A00322504613
:10274C00217800F0F7F940B14023A0EB0A0003FA1E
:10275C0000F0049B01340343049314F8011B06227C
:10276C0025488DF8281000F0E5F9002838D0234BC7
:10277C001BBB039B073323F0070308330393099B0D
:10278C003344099367E70C4601200CFB0232A5E7A2
:10279C0000234FF00A0C194601340593204610F81B
:1027AC00012B303A092A03D9002BC5D00591C3E778
:1027BC00044601230CFB0121F0E703AB00932A46EE
:1027CC0038460F4B04A9AFF30080421C0646D6D105
:1027DC00AB895B063FF52CAF09981DB0BDE8F08FB7
:1027EC0003AB00932A463846054B04A900F07CF84D
:1027FC00EBE700BFF62D0008002E000800000000DB
:10280C005D250008FC2D00082DE9F0471646994679
:10281C008A680B6907469342B8BF1346336091F838
:10282C0043200C46DDF820800AB101333360236865
:10283C00990642BF336802333360256815F00605EC
:10284C0006D104F1190AE36832689B1AAB4228DC02
:10285C0094F84320131E226818BF012392062DD42E
:10286C004946384604F14302C047013020D0236862
:10287C00E56803F00603042B18BF002532684FF0FF
:10288C000006A36808BFAD1A226908BF25EAE575E2
:10289C009342C4BF9B1AED181A34B5421AD10020CA
:1028AC0008E00123524649463846C047013003D15F
:1028BC004FF0FF30BDE8F0870135C4E73020E11858
:1028CC0081F843005A1C94F845102244023382F8D4
:1028DC004310C5E70123224649463846C04701301C
:1028EC00E6D00136D9E700002DE9FF470C46277EDC
:1028FC009146782F80469A460C9904F1430207D8EA
:10290C00622F0AD8002F00F0D980582F00F0A48035
:10291C0004F1420684F842703AE0A7F16303152BE8
:10292C00F6D801A050F823F08D290008A129000841
:10293C001D2900081D2900081D2900081D29000853
:10294C00A12900081D2900081D2900081D290008BF
:10295C001D290008AF2A0008D1290008912A000877
:10296C001D2900081D290008D12A00081D2900086E
:10297C00D12900081D2900081D290008992A0008E2
:10298C000B6804F142061A1D1B680A6084F8423079
:10299C000123A4E0256808682E0600F104030AD57B
:1029AC0005680B60002D03DA2D236D4284F843304B
:1029BC000A235E4819E015F0400F05680B6018BF3C
:1029CC002DB2EFE70B682568181D0860280601D5A5
:1029DC001D6802E06906FBD51D886F2F0CBF08230C
:1029EC000A235248002184F843106668002EA8BFC1
:1029FC002168A660A4BF21F0040121600DB9002E4E
:102A0C004DD01646B5FBF3F103FB1157C75D06F825
:102A1C00017D2F46BB420D46F4D9082B0BD1236800
:102A2C00DF0708D5236961689942DEBF302306F8B9
:102A3C00013C06F1FF36921B22614B462146404673
:102A4C00CDF800A003AAFFF7DFFE01304CD14FF008
:102A5C00FF3004B0BDE8F087344884F845700E6848
:102A6C00236856F8045B1F060E6014D5D90744BFC3
:102A7C0043F0200323601DB9236823F02003236057
:102A8C001023AFE7236843F0200323607823284802
:102A9C0084F84530E3E75E0648BFADB2E6E716467C
:102AAC00BBE70B6826681D1D60690D6035061B6849
:102ABC0001D5186002E07106FBD51880002316467C
:102ACC002361BAE70B681A1D0A601E6800213046A4
:102ADC00626800F02FF808B1801B606063682361A6
:102AEC00002384F84330A8E7324649464046236920
:102AFC00D0470130ABD023689B0713D4E068039B0D
:102B0C009842B8BF1846A4E70123324649464046CE
:102B1C00D04701309BD00135E36803995B1AAB4277
:102B2C00F2DCEBE7002504F11906F5E7072E0008A7
:102B3C00182E0008034610B5C9B202449342184639
:102B4C0001D1002003E0047801338C42F6D110BD92
:102B5C000A44914200F1FF3300D1704710B511F8CF
:102B6C00014B914203F8014FF9D110BD884210B5C9
:102B7C0001EB020402D98442234607D8431EA1422A
:102B8C0008D011F8012B03F8012FF8E70146024495
:102B9C008A4200D110BD13F8014D02F8014DF7E740
:102BAC0038B50546002943D051F8043C0C1F002BC6
:102BBC00B8BFE41800F0D0F81E4A1368104633B9B9
:102BCC00636014602846BDE8384000F0CBB8A342DF
:102BDC000AD921686218934201BF1A685B685218BF
:102BEC00226063600460EDE71A465B680BB1A34298
:102BFC00FAD911685018A0420BD120680144501822
:102C0C0083421160DED118685B6801441160536027
:102C1C00D8E702D90C232B60D4E7206821188B420B
:102C2C0001BF19685B680918216063605460C9E7CB
:102C3C0038BD00BF90000020F8B5CD1C25F0030571
:102C4C0008350C2D38BF0C25002D064601DBA9429A
:102C5C0003D90C2333600020F8BD00F07DF8214926
:102C6C000A6814469CB9204F3B6823B9214630466C
:102C7C0000F062F838602946304600F05DF8431CDD
:102C8C0023D10C233046336000F06CF8E3E7236863
:102C9C005B1B17D40B2B03D923601C44256004E069
:102CAC006368A2420CBF0B605360304600F05AF8C8
:102CBC0004F10B00231D20F00700C21ACCD01B1A04
:102CCC00A350C9E722466468CCE7C41C24F0030473
:102CDC00A042E3D0211A304600F02EF80130DDD1AD
:102CEC00CFE700BF9000002094000020F8B5074605
:102CFC0014460E4621B91146BDE8F840FFF79CBFBB
:102D0C0022B9FFF74DFF25462846F8BD00F030F8F4
:102D1C00A0420FD221463846FFF78EFF0546002809
:102D2C00F2D031462246FFF713FF31463846FFF703
:102D3C0037FFE9E73546E7E738B50023054D04468C
:102D4C0008462B60FDF7A2FC431C02D12B6803B193
:102D5C00236038BDD8000020014800F011B800BF36
:102D6C00E0000020014800F00CB800BFE00000209B
:102D7C0051F8043C181F002BBCBF0B58C0187047EF
:102D8C0070477047F8B500BFF8BC08BC9E4670474A
:0C2D9C00F8B500BFF8BC08BC9E467047AC
:102DA800253032642E253032642E253032640000FE
:102DB80000000000000000000102030406070809E3
:102DC80000000000010203040203040506070809C5
:102DD8000A0B0C0D0E0F101001020000020304056F
:102DE800060708090A0B0C0D0E0F10100102232DFF
:102DF800302B2000686C4C006566674546470030FC
:102E08003132333435363738394142434445460048
:102E18003031323334353637383961626364656648
:042E280000000000A6
:042E2C003101000868
:042E30000D01000888
:102E340000127A00100000000100000010000020C1
:102E4400000000000000000000000000000000007E
:102E5400000000000000000000000000000000006E
:102E6400000000000000000000000000000000005E
:102E7400000000000000000000000000000000004E
:102E8400000000000000000000000000000000003E
:102E9400000000000000000000000000000000002E
:0400000508000711D7
:00000001FF
